:020000040800F2
:10000000D0070020390200088B1E0008791C000868
:10001000891E0008130600085D2500080000000086
:10002000000000000000000000000000E91E0008C1
:1000300051060008000000008D1E0008EB1E00089D
:10004000530200085302000853020008530200083C
:10005000530200085302000853020008530200082C
:10006000530200085302000853020008530200081C
:10007000530200085302000853020008530200080C
:1000800053020008530200085302000853020008FC
:1000900053020008530200085302000853020008EC
:1000A00053020008530200085302000853020008DC
:1000B00053020008530200085302000853020008CC
:1000C00053020008530200085302000853020008BC
:1000D000530200085302000851250008530200088B
:1000E000530200085302000853020008530200089C
:1000F000530200085302000853020008530200088C
:100100005302000853020008951F0008530200081C
:10011000530200085302000853020008530200086B
:10012000530200085302000853020008530200085B
:10013000530200085302000853020008530200084B
:10014000530200085302000853020008530200083B
:10015000530200085302000853020008530200082B
:10016000530200085302000853020008530200081B
:100170005302000853020008530200080000000068
:10018000530200085302000800F002F800F045F89E
:100190000AA090E8000C82448344AAF10107DA45E2
:1001A00001D100F03AF8AFF2090EBAE80F0013F0EF
:1001B000010F18BFFB1A43F001031847D4240000B5
:1001C000F4240000103A24BF78C878C1FAD8520746
:1001D00024BF30C830C144BF04680C6070470000C1
:1001E0000023002400250026103A28BF78C1FBD840
:1001F000520728BF30C148BF0B6070471FB502F0DF
:1002000035FA00F0A3F904000020002102F018FAEA
:10021000401C60601FBD10B510BD00F072F91146A2
:10022000FFF7ECFF02F0BAF900F0A2F903B4FFF710
:10023000F2FF03BC00F0E6F909488047094800478F
:10024000FEE7FEE7FEE7FEE7FEE7FEE7FEE7FEE786
:10025000FEE7FEE704480549054A064B70470000E3
:10026000851F000889010008D0010020D007002068
:10027000D0030020D003002053EA020C00F0698074
:100280002DE9F04B4FF00006002B1FBFB3FA83F5AA
:1002900003FA05F424FA05F65E4012BF1643B2FADB
:1002A00082F502FA05F4C5F120051EBF22FA05FC0D
:1002B00044EA0C04203556EA044C4FEA144418BFB3
:1002C000641C4FF000084FF00009904271EB030CE2
:1002D00039D3002919BFB1FA81F701FA07F6B0FA4C
:1002E00080F700FA07F6C7F120071EBF20FA07FCC7
:1002F00046EA0C062037B6FBF4FCA7EB0507103FD7
:1003000007F01F0BCBF120060CFA0BFB2CFA06F6BC
:1003100044BFB3460026202FA4BF5E464FF0000B1B
:100320005BEA060C08BF4FF0010B19EB0B09ABFBA6
:10033000027C48EB0608C01B06FB02CC0BFB03CC7F
:1003400071EB0C01C1E70B46024641464846BDE849
:10035000F08B13B54FF000004FF00001AFF30080B9
:10036000BDE81C40704770B5064600F033F80468DD
:10037000054630460A22002100F030F82C6070BD9E
:100380004FF0000200B5134694469646203922BF2E
:10039000A0E80C50A0E80C50B1F12001BFF4F7AF79
:1003A000090728BFA0E80C5048BF0CC05DF804EB5B
:1003B000890028BF40F8042B08BF704748BF20F8C9
:1003C000022B11F0804F18BF00F8012B70477047C7
:1003D0007047704700487047700100202DE9F047D2
:1003E00091460F4680460446002614F8015B2DB165
:1003F00000F030F80068405DC007F6D12B2D02D028
:100400002D2D18D0641E4A463946204600F02AF8A1
:1004100027B13968A14201D1C7F800804FF002042A
:1004200071050BD54042002803DDFFF7D3FF0460C0
:10043000A007BDE8F08746F48066E4E70028F8DA14
:10044000FFF7C8FF04606FF00040F2E70048704714
:100450007001002010B500F079F8001D10BD00BF3C
:10046000E12100002DE9F05F824615468B4600270A
:100470000AF10104B9460078302801D09DB113E09B
:1004800014F8010B0127782803D0582801D045B172
:100490000AE00DB1102D07D1002714F8010B10252B
:1004A00002E0082500E00A250026B0460EE005FB24
:1004B000080005FB06F101271FFA80F801EB104642
:1004C000B6F5803F00D3B94614F8010B294600F079
:1004D00041F80028EBDABBF1000F05D00FB1641E24
:1004E00000E05446CBF80040B9F1000F06D0FFF70A
:1004F00071FF02210160C81EBDE8F09F48EA064076
:10050000FAE77546FFF7A2FFAE4605006946534677
:1005100020F00700854618B020B5FFF79BFEBDE828
:1005200020404FF000064FF000074FF000084FF05A
:10053000000B21F00701AC46ACE8C009ACE8C009EB
:10054000ACE8C009ACE8C0098D4670470048704768
:10055000900100203A2800D2303820F02002412AB1
:1005600001D3A2F13700884201D34FF0FF3070472A
:1005700010B50446AFF300802046BDE81040FFF7F9
:1005800055BE00004FF0013C50F8042B51F8043BDD
:100590009A4221D1A2EB0C03934313EACC1317D157
:1005A00050F8042B51F8043B9A4215D1A2EB0C03EE
:1005B000934313EACC130BD150F8042B51F8043BAE
:1005C0009A4209D1A2EB0C03934313EACC13DBD07C
:1005D0004FF00000704700BFD01A01BAB1FA81F1A4
:1005E00001F0180122FA01F0CB40C1F12001DBB289
:1005F000C0B2C01A2CFA01F3D11A914311EAC31107
:10060000E6D1704701491820ABBEFEE72600020084
:100610007047FEE70C480D4902780A708269C1F8FC
:100620000120027F4A714269C1F8062042894A814D
:1006300082780A730D21C170044942784A73017BA4
:10064000024801F08DBF000000000020460000209D
:1006500070470000044801684A6A04480389D21AB6
:10066000C280496A018170479C0000200000002080
:1006700072B6FEE72DE9F0410446876D00F04EF9B1
:10068000064694F835000025022806D080206065D3
:1006900084F834500120BDE8F0812068016821F021
:1006A000160101602068416921F080014161206CE0
:1006B00008B9A06C20B12068016821F00801016030
:1006C0002068016821F0010101600CE000F026F9CA
:1006D000801B052807D920206065032084F8350099
:1006E00084F83450D7E720680068C007EED194F84A
:1006F0005C103F208840B860012084F8350084F801
:1007000034500020C7E790F83510022903D080212B
:10071000416501207047052180F8351000680168A7
:1007200021F0010101600020704700002DE9F84F21
:10073000DFF8BCA10022012503264FF00F090AF1C2
:10074000040BAAF1040E00BF0B6805FA02F4234063
:10075000A34270D10F7907F00307012F01D0022FB8
:1007600016D187684FEA420806FA08FC27EA0C0708
:10077000D1F80CC00CFA08FC4CEA070CC0F808C011
:100780004768A7430C79C4F3001494403C43446089
:100790000C79E443A4070AD0C4684FEA420C06FA75
:1007A0000CF7BC438F6807FA0CF72743C7600C7936
:1007B00004F00304022C12D1D40800EB840CDCF802
:1007C00020405707FF0E09FA07F824EA0804D1F879
:1007D000108008FA07F848EA0408CCF8208004687A
:1007E0004FEA420C06FA0CF7BC430F7907F00307F7
:1007F00007FA0CF7274307604C6814F4403F70D0A9
:100800003C4C276847F480472760246822F00307A0
:1008100004F480440094384C07EB040CDCF80848DE
:1008200097074FEA177809FA08F7BC43334FB842E5
:1008300002D1002724E054E0314FB84201D1012712
:100840001EE0304FB84201D1022719E02E4FB842C6
:1008500001D1032714E02D4FB84201D104270FE046
:100860002B4FB84201D105270AE02A4FB84201D1E7
:10087000062705E0284FB84201D1072700E00827E6
:1008800007FA08F72743CCF80878DAF8004057460B
:10089000D1F804C09C435FEACC2C00D51C433C60DB
:1008A000DBF800405F46D1F804C09C435FEA8C2C23
:1008B00000D51C433C60DEF800407746D1F804C008
:1008C0009C435FEA8C3C00D51C433C60084F083FCA
:1008D0003C68D1F804C09C435FEACC3C00D51C4383
:1008E0003C60521C102AFFF42FAFBDE8F88F0000C7
:1008F000083C014044380240003001400000024002
:100900000004024000080240000C024000100240B7
:100910000014024000180240001C02400148806898
:1009200070470000280000200248816802781144C6
:1009300081607047280000200B4810B5016841F421
:1009400000710160016841F480610160016841F457
:1009500080710160032000F06FF80F2000F006F8AE
:1009600000F024F8002010BD003C024070B50D4D91
:1009700004464FF47A712878B1FBF0F00A4909680F
:10098000B1FBF0F000F00AFB48B9102C07D20022AE
:100990002146501E00F030F800206C6070BD012030
:1009A00070BD000028000020340000200A4808B56F
:1009B000016841F480410160006800F480400090CB
:1009C0000548001F016841F080510160006800F097
:1009D0008050009008BD000044380240002809DB28
:1009E00000F01F02012191404009800000F1E02049
:1009F000C0F8001170470000F0B40E4B1B680C46A5
:100A0000C3F30223C3F10705042D00D90425191DE2
:100A1000072901D2002300E0DB1E012606FA05F1BA
:100A2000491E214099409E40761E16403143F0BC3D
:100A300001F0A4BD0CED00E0064900F007020868D3
:100A40004FF6FF03184040EA0220034A10430860B3
:100A5000704700000CED00E00000FA052DE9F047BA
:100A60000E46050065D0DFF81481D8F80000F7B213
:100A700000F00700B04207D288F80070D8F80000F4
:100A800000F00700B04254D128683D4C810712D5D0
:100A9000400703D5206840F4E05020602878000724
:100AA00003D5206840F4604020602068A96820F0E9
:100AB000F000084320602878C0072DD030496868CE
:100AC0000839012812D0022813D0032811D0096850
:100AD000890700292DDA216821F0030101432160F3
:100AE000FFF71CFF814641F2883A0EE0096889034E
:100AF000EFE709688901ECE7FFF710FFA0EB0901B8
:100B0000514502D90320BDE8F0872068696800F0EC
:100B10000C00B0EB810FEFD1D8F80010404601F087
:100B20000701B14207D90770006800F00700B04222
:100B300001D00120E7E72878400705D52068E9685B
:100B400020F4E050084320602878000706D520688C
:100B5000296920F4604040EAC100206000F038F8C4
:100B60002168084AC1F30311515CC8400649086076
:100B700006480068FFF7FAFE0020C4E7003C024088
:100B80000838024076260008340000202C0000209F
:100B90000448054900680968044AC1F38221515C90
:100BA000C8407047340000200838024086260008FC
:100BB0000448054900680968044AC1F34231515CA0
:100BC000C8407047340000200838024086260008DC
:100BD000154810B5006810F00C02144813D04110ED
:100BE000042A0FD0082A0ED10F4C241F2268236834
:100BF00002F03F025B0207D52068C0F38810A0FB1B
:100C0000010106E0084610BD2168C1F38811A1FB6F
:100C100000010023FFF730FB2168C1F30141491CAB
:100C20004900B0FBF1F010BD083802400024F40088
:100C30002DE9F84F04006ED02078DFF84C93C00700
:100C4000A9F104054AD009F104000168C1F381014A
:100C5000012908D00068C0F3810002280AD1D9F820
:100C60000000400206D52868800337D56068002858
:100C7000E1D033E06068B0F5803F10D0B0F5A02F30
:100C8000286810D020F480302860286820F4802064
:100C900028606068A8B1FFF741FE06460DE02868AD
:100CA00040F48030F4E740F480202860F7E700BF8C
:100CB000FFF734FE801B642873D828688003F7D5BB
:100CC0000CE0FFF72BFE064605E000BFFFF726FE0F
:100CD000801B6428F0D828688003F7D42078DFF8D8
:100CE000AC8280074FF0000A3ED5A748001D01687E
:100CF00011F00C0F08D00068C0F3810002280BD15E
:100D0000D9F80000400207D42868800716D5E068AB
:100D1000012800D112E033E1E068B8B10120C8F841
:100D20000000FFF7FBFD064605E000BFFFF7F6FDFC
:100D3000801B0228C0D828688007F7D52868216959
:100D400020F0F80040EAC10028600DE0C8F800A0DB
:100D5000FFF7E4FD064604E0FFF7E0FD801B0228F4
:100D60001FD828688007F7D42078000722D5864F3F
:100D700087486169703771B101210160FFF7CEFDCD
:100D8000064604E0FFF7CAFD801B022809D8386830
:100D90008007F7D50EE0C0F800A0FFF7BFFD0646BC
:100DA00005E082E0FFF7BAFD801B02287DD8386895
:100DB0008007F7D42078400768D5DFF8CCB100274A
:100DC0000BF13C0BDBF80000C0000BD4DBF800108B
:100DD00041F08051CBF80010DBF80000012700F053
:100DE000805000906B4E3068C00510D4306840F4DD
:100DF00080703060FFF792FD009005E0FFF78EFDF8
:100E00000099401A022850D83068C005F6D55E4EC9
:100E1000A0686C3601280FD00528306810D020F06B
:100E200001003060306820F004003060A068B8B184
:100E3000FFF774FD00900FE0306840F00100F4E728
:100E400040F004003060F7E7FFF768FD0099411AB1
:100E500041F28830814266D830688007F4D50EE0D0
:100E6000FFF75CFD009007E0FFF758FD0099411A7D
:100E700041F28830814256D830688007F4D42FB1CF
:100E8000DBF8001021F08051CBF80010A069C8B346
:100E90003D49091D0968C1F3810102294AD0022890
:100EA000504607D0C8F8600000E03CE0FFF736FD90
:100EB00004463BE04746C8F86000FFF72FFD0646B2
:100EC00005E000BFFFF72AFD801B02282BD8286809
:100ED0008001F7D4D4E907010843A16A2E4A4908E2
:100EE00002EB0141626A41EA8211084394F82C1036
:100EF00040EA0161C9F8001001203866FFF70EFDD5
:100F0000044606E03EE000BFFFF708FD001B022894
:100F100009D828688001F7D534E000BFFFF7FEFC50
:100F2000001B022802D90320BDE8F88F2868800141
:100F3000F4D427E00128F7D0D9F80000E26900F4E2
:100F4000800191421CD1226A00F03F01914217D1E9
:100F500047F6C071626A0140B1EB821F10D1A26AEC
:100F60004FF0FF3300F4403103EB5202B1EB024F7C
:100F700006D194F82C1000F07060B0EB016F01D036
:100F80000120D1E70020CFE70438024000004742AB
:100F9000800E4742007000400000FFFF10B5401E69
:100FA000B0F1807F01D3012010BD4FF0E0246061DB
:100FB0000F21601701F0E2FA0020A06107202061F4
:100FC000002010BD7047704710B590F83C20012AF2
:100FD00022D0012280F83C20CA688C6822F440723A
:100FE00022434C6822F4806222430C6822F400629F
:100FF00022430C6922F4805222434C6922F40052AD
:101000002243C969002322F480420A4301684A64EA
:1010100080F83C30002010BD022010BD70B590F863
:101020003C20012A32D0012480F83C40022280F882
:101030003D2003685A689D6822F070060A683243B2
:101040005A60134B02689A4214D0B2F1804F11D00B
:10105000104B9A420ED0104B9A420BD00F4B9A4233
:1010600008D00F4B9A4205D00E4B9A4202D00E4B3D
:101070009A4204D1496825F080031943916080F8B1
:101080003D40002180F83C10084670BD022070BD34
:10109000000001400004004000080040000C004037
:1010A00000040140004001400018004010B5040059
:1010B00003D094F83D0010B107E0012010BD0020DE
:1010C00084F83C00204600F01FF8022084F83D0020
:1010D000211D206800F064FF012084F8460084F898
:1010E0003E0084F83F0084F8400084F8410084F812
:1010F000420084F8430084F8440084F8450084F8F2
:101100003D00002010BD000008B50068114988426C
:1011100009D11148016841F001010160006800F047
:101120000100009008BD0D498842FBD10A48001F0C
:10113000016841F0080101600068002200F0080029
:10114000009011463220FFF757FCBDE808403220DE
:10115000FFF744BC0000014044380240000C00404E
:1011600090F83D10012901D001207047022180F83C
:101170003D100168CA6842F00102CA600068114966
:10118000884214D0B0F1804F11D00F4988420ED060
:101190000E4988420BD00E49884208D00D4988423A
:1011A00005D00D49884202D00C49884204D181689B
:1011B00001F00701062903D0016841F00101016037
:1011C000002070470000014000040040000800407B
:1011D000000C0040000401400040014000180040A5
:1011E00070B5044690F83C000025012817D0012670
:1011F00084F83C60022084F83D002068826822F078
:10120000770222F47F4282600868502838D00DDCD3
:1012100020284FD005DC90B3102811D14AE00220DD
:1012200070BD302846D040280AD13BE060282FD03E
:1012300070280DD0B0F5805F03D0B0F5005F12D0FC
:10124000012584F83D60002084F83C00284670BDEC
:10125000CB68D1E90121206800F013FF2068816884
:1012600041F0770109E0CB68D1E90121206800F065
:1012700008FF2068816841F480418160E1E719E05E
:10128000CA684968206800F0D1FF5021206806E054
:10129000CA684968206800F0DAFF6021206800F021
:1012A000FAFECEE7CA684968206800F0BFFF402117
:1012B0002068F4E7226801461046F0E72DE9F04186
:1012C0000D46040003D094F83D0018B108E0012059
:1012D000BDE8F081002084F83C00204600F040F892
:1012E000022084F83D002068816844F2070291439F
:1012F0008160211D206800F053FE2268906891698A
:10130000166A2B68AF69034340F20330814341EA18
:101310000721A868EF6908434FF6FC418843E96854
:1013200040EA0720014328692F6A000140EA07309C
:10133000084369686D6926F0AA0646EA051529433F
:1013400093602268906154F8460B0162012004F812
:101350001F09E0752076E0762077A0750020B7E7BA
:1013600010B586B0044614216846FFF709F82068D6
:10137000B0F1804F1FD111480021026842F00102F4
:101380000260006800F0010005900C481038026807
:1013900042F001020260006800F0010005900320A5
:1013A00000900220CDE901010120CDE9031069463A
:1013B0000348FFF7BBF906B010BD000040380240FB
:1013C0000000024070B590F83E60044690F83F502F
:1013D00090F8423090F84320022021B104290ED029
:1013E000012E1BD114E0012E18D1012B16D184F847
:1013F0003E0084F8420001220021206820E0012DF7
:101400000CD1012A0AD184F83F0084F8430014E08B
:10141000012D03D1012B01D1012A01D0012070BD82
:1014200084F83E0084F83F0084F8420084F84300CA
:1014300001220021206800F017FE0122042120680B
:1014400000F012FE2068016841F0010101600020F7
:1014500070BD704770B50446006801694FF0000523
:10146000C943890715D4C168C943890711D4E91E46
:10147000016101202077206880698007204602D022
:10148000FFF7E7FF04E000F0C3F8204600F055F94D
:10149000257720680169C943490717D4C168C94342
:1014A000490713D46FF004010161022020772068FE
:1014B000806910F4407F204602D0FFF7CAFF04E0A5
:1014C00000F0A6F8204600F038F925772068016979
:1014D000C943090716D4C168C943090712D46FF07C
:1014E00008010161042020772068C0698007204638
:1014F00002D0FFF7AEFF04E000F08AF8204600F0CB
:101500001CF9257720680169C943C90617D4C16849
:10151000C943C90613D46FF0100101610820207778
:101520002068C06910F4407F204602D0FFF791FF89
:1015300004E000F06DF8204600F0FFF82577206801
:101540000169C943C90708D1C168C943C90704D1A2
:10155000891E0161204600F055F920680169C943E0
:10156000090609D4C168C943090605D46FF0800192
:1015700001612046FFF726FD20680169C94349063D
:1015800009D4C168C943490605D46FF0400101611F
:10159000204600F041F920680169C94389060BD44F
:1015A000C168C943890607D46FF020010161204654
:1015B000BDE87040FFF707BD70BD000010B586B0F4
:1015C000044614216846FEF7DBFE0E492068884277
:1015D00016D10D480021026842F010020260006836
:1015E00000F0100005904FF4007000900220CDE94B
:1015F00001010120CDE9031069460448FFF796F880
:1016000006B010BD0000014030380240001002401A
:10161000704770B5044690F83C0000260D4601283E
:101620000FD0012084F83C006AB1042A1DD0082A9A
:101630002FD00C2A3FD00126002084F83C003046F1
:1016400070BD022070BD206800F02EFD2068816909
:1016500041F0080181612068816921F00401816104
:10166000206881692A69114311E0206800F04CFD6F
:101670002068816941F4006181612068816921F4F9
:1016800080618161206881692A6941EA0221816162
:10169000D2E7206800F06EFD2068C16941F00801C2
:1016A000C1612068C16921F00401C1612068C1697C
:1016B0002A69114311E0206800F090FD2068C1699B
:1016C00041F40061C1612068C16921F48061C16198
:1016D0002068C1692A6941EA0221C161ACE710B5FD
:1016E000040003D094F83D0010B107E0012010BDC4
:1016F000002084F83C00204600F01EF8022084F808
:101700003D00211D206800F04BFC012084F84600BC
:1017100084F83E0084F83F0084F8400084F84100DB
:1017200084F8420084F8430084F8440084F84500BB
:1017300084F83D00002010BD7047704710B5044686
:10174000022249B104290ED0082913D094F841008F
:10175000012816D0012010BD94F83E000128F9D1CF
:1017600084F83E200FE094F83F000128F2D184F87D
:101770003F2008E094F840000128EBD184F8402095
:1017800001E084F841200122206800F06DFC164938
:101790002068164A884201D0904203D1436C43F43A
:1017A000004343642068884213D0B0F1804F10D0CA
:1017B0000F4988420DD00F4988420AD00E4988420D
:1017C00007D0904205D00D49884202D00C4988428A
:1017D00004D1816801F00701062903D0016841F0B6
:1017E00001010160002010BD000001400004014023
:1017F0000004004000080040000C00400040014090
:1018000000180040034900680968884201D1FEF7CA
:1018100021BF7047E4000020704770477047000008
:10182000F8B5016804460868CA684B6910F00F0FE4
:101830004FF0000559D003F0010602F490773743CA
:1018400065D0C10705D0D10503D5216C41F0010158
:101850002164410705D5D90703D0216C41F002016D
:101860002164810705D5D90703D0216C41F004011B
:101870002164010707D502F02001314303D0216C18
:1018800041F008012164216C00293AD0800604D57A
:10189000900602D5204600F01BFD20684069216CAF
:1018A000C0F38010090700D460B3204600F0E9FCC3
:1018B00020684069400621D52068143050E8001F98
:1018C00021F0400140E80012002AF5D1A06BA8B138
:1018D0006C490165A06BFEF716FF002811D0A06BC4
:1018E000016D01B0BDE8F040084783060FD59306AF
:1018F0000DD52046BDE8F84000F0EABC2046FFF7D1
:101900008DFFF8BD2046FFF789FF2564F8BD266BE3
:101910002023012E79D1C60677D5D60675D508685D
:10192000486800904869400640D5A16B0868406847
:101930000004000CEAD0A28D8242E7D9E085C86994
:10194000B0F5807F2DD020680C3050E8001F21F4C6
:10195000807140E80012002AF5D12068143050E868
:10196000001F21F0010140E80012002AF5D1206893
:10197000143050E8001F21F0400140E80012002A16
:10198000F5D184F83E30256320680C3050E8001F04
:1019900021F0100140E80012002AF5D1A06BFEF7FB
:1019A00069FEA08DE18D401A81B229E0A08DE18D04
:1019B000401A81B2E08D0028A8D00029A6D0206866
:1019C0000C3050E8002F22F4907240E80026002EE0
:1019D000F5D12068143050E8002F22F0010240E8D1
:1019E0000026002EF5D184F83E30256320680C30A7
:1019F00050E8002F22F0100240E80023002BF5D120
:101A00002046FFF70AFFF8BDFFE705062BD51506B0
:101A100029D594F83D002128F5D1A068B0F5805F64
:101A200001D12069B0B1206A411C2162216800788F
:101A30004860E08C401E0004000CE084E3D1206884
:101A4000C16821F08001C1602068C16841F0400197
:101A5000C160D8E7206A0088C0F308004860206AA7
:101A6000801C2062E5E74006CDD55006CBD5CA687C
:101A7000204622F04002CA6084F83D3000F0FBF8B6
:101A8000C1E700007322000870B5040004D094F888
:101A90003D00002510B106E0012070BD84F83C50E7
:101AA000204600F023F8242084F83D002068C16817
:101AB00021F40051C160204600F06AFC20680169F1
:101AC00021F4904101612068416921F02A014161BE
:101AD0002068C16841F40051C1602564202084F869
:101AE0003D0084F83E00002070BD000010B586B0B7
:101AF000044614216846FEF743FC174920688842D3
:101B000028D116480021026842F4003202600068C1
:101B100000F40030059011481038026842F00102CC
:101B20000260006800F0010005900C200090022087
:101B3000CDE901010320039007200490694608487D
:101B4000FEF7F4FD002201212620FEF755FF262096
:101B5000FEF744FF06B010BD00440040403802408C
:101B60000000024090F83E30202B0ED159B152B106
:101B700090F83C30012B08D0012380F83C30002342
:101B8000036300F08BBC0120704702207047000007
:101B900010B509490068096888420CD1074C08480B
:101BA000217B00F075F9A089BDE8104082B204499C
:101BB0000148FFF7D7BF10BD2C0100200000002016
:101BC000380000202DE9F843044690F83D001F46F8
:101BD00016460D4620284CD1C5B1BEB194F83C0044
:101BE000012846D0012084F83C004FF00008C4F8DA
:101BF0004080212084F83D00FEF790FEA6848146B7
:101C0000E684A068B0F5805F03D004E00120BDE861
:101C1000F883206928B12E465FF0000584F83C80E7
:101C20000EE00026FAE78021204600F054FCA0B91F
:101C3000AEB116F8010B21684860E08C401EE084CC
:101C4000E08C4B464FF0000200970028EBD14FF09C
:101C50004001204600F03FFC30B10320D7E735F8C3
:101C6000020BC0F30800E6E7202084F83D000020C6
:101C7000CDE70220CBE77047FEE700000D4808B52E
:101C8000016841F080010160016801F0800100916C
:101C9000016841F001010160016801F0010100915A
:101CA000016841F010010160006800F01000009030
:101CB00008BD00003038024010B596B000240F94E3
:101CC00010941194129413941C2108A81494FEF7F4
:101CD00057FB20216846FEF753FB28482649016040
:101CE00040F2CF71C0E901144910C0E90314446106
:101CF0008461FFF7DBF908B1FEF7BAFC4FF48050BE
:101D00000F900FA91D48FFF76BFA08B1FEF7B0FC62
:101D10001A48FFF7E4FC08B1FEF7AAFC139413A9D4
:101D200016481494FFF77AF908B1FEF7A1FC602079
:101D3000CDE908040A940B940C940D94002208A990
:101D40000E480E94FFF765FC08B1FEF791FC009475
:101D50004FF40050CDE90440029401940394694685
:101D600006480794FFF730F908B1FEF781FC0348F5
:101D7000FFF724FC16B010BD000001405400002005
:101D800010B58CB024216846FEF7FAFA00241548F5
:101D900009944FF080410A94C0E90014611EC0E923
:101DA0000241046184610320CDE900040120CDE9F2
:101DB00002040494CDE90540079469460948089453
:101DC000FFF77CFA08B1FEF753FC099409A905480E
:101DD0000A94FFF723F9002801D0FEF749FC0CB064
:101DE00010BD00009C00002010B586B000241748EC
:101DF000009401940294039404941349059401609F
:101E000042F20F71C0E901146321C0E90314846137
:101E1000FFF74CF908B1FEF72BFC4FF4805000900F
:101E200069460A48FFF7DCF908B1FEF721FC049483
:101E300004A906480594FFF7F1F8002801D0FEF741
:101E400017FC06B010BD0000000C0040E4000020AC
:101E50000C4810B50A4901604FF4E131416000219E
:101E600081600C22C160C0E904128161C161FFF789
:101E70000BFE002803D0BDE81040FEF7F9BB10BDF3
:101E8000004400402C010020FEE7FEE77047000000
:101E900030B51449054600780978124C88421DD1A6
:101EA000611C687B0978884218D1052201212846E7
:101EB00000F0B0FB0168A1610079207704220621BF
:101EC000284600F0A7FB0068606102220A2128462C
:101ED00000F0A0FB00886081012000E0002020715C
:101EE000C0B230BD000000207047FEF71DBD0000ED
:101EF00030B593B030216846FEF742FA14210CA8A1
:101F0000FEF73EFA1D480025016841F0805101604E
:101F1000006800F0805011901948016841F4804138
:101F200001600068022400F48040119001200390B9
:101F300010200490009406940820CDE907506420F6
:101F4000CDE9090404200B906846FEF771FE08B144
:101F500072B6FEE70CA90F2081E831004FF4A050C3
:101F60000F904FF48050109003210CA8FEF776FDDF
:101F7000002801D072B6FEE713B030BD40380240F1
:101F8000007000400248016841F470010160704730
:101F900088ED00E00148FFF75DBA0000E400002092
:101FA000F0B50268254C264D264E274F274B4FF0A3
:101FB000804CA04209D0604507D0A84205D0B0426D
:101FC00003D0B84201D0984204D122F0700E4A6882
:101FD00042EA0E02A0421BD0604519D0A84217D099
:101FE000B04215D0B84213D0984211D0184DA84233
:101FF0000ED0184DA8420BD0174DA84208D0174D4F
:10200000A84205D0164DA84202D0164DA84203D1D1
:1020100022F44075CA682A434D6922F080022A439F
:1020200002608A68C2620A688262A04201D0984255
:1020300001D10969016301214161F0BD0000014046
:102040000004004000080040000C00400004014073
:102050000040014000440140004801400018004099
:10206000001C00400020004010B501F01F030121BA
:10207000046A99408C430462016A9A4011430162E8
:1020800010BD10B5846842EA032224F47F440A4359
:102090002243826010BD826822F070020A4342F03F
:1020A0000701816070470000F0B5026A22F001026A
:1020B0000262036A42688469124E24F073050C6858
:1020C0002C4323F002058B682B430D4DA84201D011
:1020D000B04205D123F00807CB683B4323F004034B
:1020E000A84201D0B04205D14D6922F44072154397
:1020F0008A692A4342608461496841630362F0BD92
:102100000000014000040140F0B5026A22F0100214
:102110000262026A436884690D6824F4E64444EA72
:1021200005248D6822F0200242EA05120F4D104E60
:10213000A84201D0B04206D1CF6822F0800242EA24
:10214000071222F04002A84201D0B04207D14D69E7
:1021500023F4406343EA85038D6943EA85034360C2
:102160008461496881630262F0BD000000000140A3
:1021700000040140F0B5026A22F480720262026A31
:102180004368C46922F4007224F073050C68124E8F
:102190002C438D6842EA05220E4DA84201D0B04280
:1021A00006D1CF6822F4006242EA072222F480625C
:1021B000A84201D0B04207D14D6923F4405343EA0D
:1021C00005138D6943EA05134360C4614968C1631F
:1021D0000262F0BD000001400004014030B5026A17
:1021E00022F480520262046A4268C3690D6823F4D3
:1021F000E64343EA05238D6824F4005444EA053499
:10220000084DA84202D0084DA84204D14D6922F4DD
:10221000804242EA85124260C361496801640462F7
:1022200030BD0000000001400004014010B5036A09
:10223000046A24F001040462846924F0F00444EA8E
:10224000021423F00A020A438461026210BD10B531
:10225000036A23F0100303628369046A23F4704362
:1022600043EA023224F0A00343EA011182610162D1
:1022700010BD10B5806B0021C185C184FFF7CEFA77
:1022800010BD01680C3151E8002F22F4907241E832
:102290000023002BF5D10168143151E8002F22F002
:1022A000010241E80023002BF5D1016B012909D17E
:1022B00001680C3151E8002F22F0100241E80023A0
:1022C000002BF5D1202180F83E10002101637047DA
:1022D00008B590F83E10222901D0022008BD82687E
:1022E0004FF480539A4201D1016921B1816A9A4227
:1022F0001BD04AB10AE00268816A5268C2F3080240
:102300000A80816A891C08E0026972B10268526819
:1023100002F07F020A70816A491C8162C18D491EE8
:102320000904090CC18503D019E002685268F1E77D
:102330000168CA6822F02002CA600168CA6822F4F3
:102340008072CA6001684A6922F001024A61202154
:1023500080F83E10016B012903D0FFF719FC002023
:1023600008BD0021016301680C3151E8002F22F003
:10237000100241E80023002BF5D101680A68D2065B
:1023800002D50A6849680091818DFFF746FAE6E7B1
:1023900070B5044600680169E26821F440511143B8
:1023A00001612169A068E26908436169114308433A
:1023B0002168CA6849F20C639A430243CA602068E4
:1023C0004169A26921F4407111434161314920689A
:1023D000884202D03049884202D1FEF7E9FB01E091
:1023E000FEF7D6FBE2690023192164253226B2F5F7
:1023F000004F626828D0A0FB0101930F9200FDF707
:102400003BFF0146B0FBF5F06FF01802504301EBC3
:10241000800006EB0010B0FBF5F000F0F002B1FB1D
:10242000F5F002EB0012B1FBF5F06FF01803584322
:1024300001EB800006EB0010B0FBF5F000F00F00A0
:1024400021681044886070BDA0FB010192185B41B7
:10245000FDF712FF0146B0FBF5F00201B1FBF5F00C
:102460006FF01803584301EB800006EBC000B0FB8F
:10247000F5F000F0F80002EB4002B1FBF5F0584334
:1024800001EB800006EBC000B0FBF5F000F00700A8
:10249000D6E70000001001400014014081628285EF
:1024A000C28500210164222280F83E2080F83C1081
:1024B000016921B10168CA6842F48072CA6001688A
:1024C0004A6942F001024A610068C16841F0200196
:1024D000C160002070472DE9F041984617460E462E
:1024E0000446069D27E0681C25D02DB1FEF716FA9C
:1024F000A0EB0800A8421ED920680C3050E8001F4D
:1025000021F4D07140E80012002AF5D1206814307F
:1025100050E8001F21F0010140E80012002AF5D127
:10252000202084F83D0084F83E00002084F83C0020
:102530000320BDE8F0812068006836EA000004D07E
:102540000020B842CFD00020F3E70120F9E70000D7
:102550000148FFF765B900002C010020FEE70000EC
:102560000A4610B501464FF47A730348FFF72AFB79
:10257000002800D0012010BD2C0100200907090E01
:10258000002804DB00F1E02080F80014704700F020
:102590000F0000F1E02080F8141D7047FEF7CCF921
:1025A000FFF7A6FCFFF76AFBFFF752FCFFF784FB7F
:1025B000FFF7E6FBFFF718FC104C1149A08982B227
:1025C0001048FFF7CFFA00210F48FFF7B7F83C217A
:1025D0000E48FEF7F7FE0E48FEF7C2FD0A4E002534
:1025E00020790028FCD0FEF715F804480A30FDF7E2
:1025F000BAFE2061316848632571F1E700000020D0
:10260000380000202C010020540000209C000020F5
:10261000E400002070B5094B00240A4443F81D4F24
:102620005C60064C0B461D3403E0455CCE1A491C29
:10263000A5559142F9DB01481D3070BD0000002016
:1026400010B500290AD00878002807D0054878443A
:10265000FDF798FF002801D0002010BD0248784403
:1026600010BD0000620000005A0000004FF04070F2
:10267000E1EE100A704700000000000000000102B7
:10268000030406070809000000000102030400001B
:10269000C02700080000002038000000C401000826
:1026A000F82700083800002098070000E001000823
:1026B0001001000043000000F8FFFFFF0040404011
:1026C0004040404040404141414141404040404005
:1026D00040404040404040404040404040050202B1
:1026E0000202020202020202020202020220202070
:1026F00020202020202020020202020202029090CC
:1027000090909090101010101010101010101010C9
:10271000101010101010101002020202020288881D
:102720008888888808080808080808080808080829
:102730000808080808080808020202024000000011
:102740000000000000000000000000000000000089
:102750000000000000000000000000000000000079
:102760000000000000000000000000000000000069
:102770000000000000000000000000000000000059
:102780000000000000000000000000000000000049
:102790000000000000000000000000000000000039
:1027A0000000000000000000000000000000000029
:1027B0000000000000000000000000000000000019
:1027C0000203060000000000000000000E000000F0
:1027D00000000000000000000000000000000000F9
:1027E00000000000000000000100000010000000D8
:0827F000000000000024F400C9
:040000050800018965
:00000001FF
